:100000000C94E3000C940B010C940B010C940B0169
:100010000C940B010C940B010C940B010C940B0130
:100020000C940B010C940B010C943B090C94AD093E
:100030000C940B010C940B010C940B010C940B0110
:100040000C940B010C940B010C940B010C940B0100
:100050000C940B010C940B010C940B010C94CE032B
:100060000C940B010C940B010C940B010C940B01E0
:100070000C940B010C940B010C940B010C940B01D0
:100080000C94EB0B0C940B010C940B010C940B01D6
:100090000C9435040C940B010C940B010C940B0183
:1000A0000C940B010C940B010C940B016001630187
:1000B000520156015C0184018401840167016B01D6
:1000C0006F017501790184017F01000000002300A8
:1000D000260029002C002F000000000200090F005C
:1000E00000030401000C00000000000000000000FC
:1000F0000000000000000000000000240027002A8B
:10010000002D003000040802011040804010204003
:1001100080408008020401804020100201108010FD
:100120002040402000000000250028002B002E0069
:10013000310004040404040304050202020204035F
:100140000202020206060606060604040202020471
:100150000403080B0002020201000904000001026E
:1001600002000005240010010524010101042402FD
:10017000060524060001070581031000400904015B
:1001800000020A0000000705020240000007058384
:10019000024000000403090412010002EF020140C2
:1001A0004123378000010102030141726475696EC9
:1001B0006F204C4C430041726475696E6F204D692D
:1001C00063726F00540F11241FBECFEFDAE0DEBF61
:1001D000CDBF11E0A0E0B1E0E6EFF3E202C0059090
:1001E0000D92A237B107D9F722E0A2E7B1E001C032
:1001F0001D92A93CB207E1F710E0C3EED0E004C0C5
:100200002197FE010E94EE11C23ED107C9F70E945C
:10021000460C0C94F9110C940000CF93DF931F92BD
:10022000CDB7DEB76983DC01ED91FC910280F381EB
:10023000E02D41E050E0BE016F5F7F4F09950F90C8
:10024000DF91CF91089583E08093E9008091F200DF
:10025000882319F08AE38093E8000895FC018485DF
:10026000958597FD0BC09FB7F89482E08093E900D5
:100270008091F2009FBF90E0019608959FB7F89497
:1002800082E08093E9008091F2009FBF90E00895A2
:1002900090E0FC013197EF30F105B0F5EA5AFF4FDD
:1002A0000C94EE11809180008F7703C080918000C4
:1002B0008F7D80938000089580918000877FF9CFA3
:1002C00084B58F7702C084B58F7D84BD08958091F9
:1002D00090008F7707C0809190008F7D03C0809140
:1002E0009000877F8093900008958091C0008F7761
:1002F00003C08091C0008F7D8093C00008958091DD
:10030000C200877F8093C20008953FB7F894809120
:10031000BF019091C001A091C101B091C20126B569
:10032000A89B05C02F3F19F00196A11DB11D3FBF2D
:10033000BA2FA92F982F8827820F911DA11DB11DBB
:10034000BC01CD0142E0660F771F881F991F4A95B7
:10035000D1F708958F929F92AF92BF92CF92DF9282
:10036000EF92FF926B017C010E9485014B015C01C1
:10037000C114D104E104F104F1F00E948501DC0113
:10038000CB0188199909AA09BB09883E9340A105A8
:10039000B10570F321E0C21AD108E108F10888EE36
:1003A000880E83E0981EA11CB11CC114D104E10485
:1003B000F10419F7DDCFFF90EF90DF90CF90BF9061
:1003C000AF909F908F90089585ED8093BC008091B1
:1003D000BC0084FDFCCF109220020895409197014B
:1003E000262F30E0240F311D21323105DCF420911D
:1003F00020022430C9F4FC0180E090E0861758F414
:10040000309197012191DC01A958BE4FA30FB11D76
:100410002C930196F3CF80919701680F6093970119
:1004200080E0089581E0089582E008950895089598
:100430000895E091F9018091F801E81730F4F0E0B7
:10044000EC52FE4F808190E008958FEF9FEF08956A
:100450009091F9018091F801981750F4E92FF0E09C
:10046000EC52FE4F208130E09F5F9093F90102C073
:100470002FEF3FEFC90108958091F80190E020919E
:10048000F901821B91090895CF92DF92EF92FF92BA
:100490000F931F93CF93DF937C01CB018A012091AF
:1004A0002102222389F0EB016B01C40ED51ECC156D
:1004B000DD0569F06991D701ED91FC910190F08122
:1004C000E02DC7010995F3CF642F0E94EE01C8010A
:1004D000DF91CF911F910F91FF90EF90DF90CF9020
:1004E0000895CF93DF931F92CDB7DEB76983209134
:1004F00021022223D1F020914402203240F021E059
:1005000030E0FC013383228380E090E015C08091CD
:100510002202E82FF0E0ED5DFD4F998190838F5F1F
:10052000809322028093440205C061E0CE010196CF
:100530000E94EE0181E090E00F90DF91CF9108954D
:10054000089580E090E008958F929F92AF92BF92BD
:10055000CF92DF92EF92FF920F931F93CF93DF938F
:100560006C017B018A0180910C01882309F45CC035
:100570008091D301882309F457C08091C20280FF83
:1005800005C08091E00082608093E000E801B12C1A
:100590008AEFA82E93E0892E2AE3922E209711F459
:1005A000BB20D9F10E94230881110AC0AA94AA2075
:1005B000D9F161E070E080E090E00E94AA01EECF06
:1005C000282F30E0C217D3070CF48C2F9FB7F89474
:1005D0008092E9002091E80025FF1DC0282F30E01F
:1005E000C21BD30BF701815020F041914093F100E1
:1005F000FACFE20EF31EBB2019F09092E8000AC079
:100600008091E80085FD07C09092E800BB24B39478
:10061000209709F0B12C9FBFC1CF5D9A84E68093EB
:10062000C3021016110644F081E090E0F6019383B6
:10063000828380E090E001C0C801DF91CF911F91DB
:100640000F91FF90EF90DF90CF90BF90AF909F9071
:100650008F9008950E94230890E008950F931F93B0
:10066000CF93DF931F92CDB7DEB78C01FC01848559
:10067000958597FF0EC0CE0101960E94F507019760
:1006800019F4898190E002C08FEF9FEFF801958700
:100690008487F801848595850F90DF91CF911F9114
:1006A0000F910895CF93DF931F92CDB7DEB7FC0172
:1006B0008485958597FD05C02FEF3FEF358724870B
:1006C0000BC0CE0101960E94F507019719F48981AC
:1006D00090E002C08FEF9FEF0F90DF91CF910895D0
:1006E0000E94F411FC01248131E030932102209317
:1006F000430210922202109244028385682B85E9FE
:1007000092E00E94710281E00C9463050F931F93A5
:10071000CF938C01C62F0E9472036C2F6460C801B6
:100720000E9472036C2F6B7FC8010E94720383ECDE
:1007300090E00197F1F7CF911F910F9108951F93CA
:10074000CF93DF93282F30E0F901E852FF4F8491D7
:10075000F901EB5FFE4FD491F901EE5CFE4FC491BD
:10076000CC23C1F0162F81110E944801EC2FF0E03C
:10077000EE0FFF1FEC5DFE4FA591B4919FB7F8946B
:10078000111104C08C91D095D82302C0EC91DE2BBE
:10079000DC939FBFDF91CF911F9108951F920F921D
:1007A0000FB60F9211242F933F938F939F93AF9384
:1007B000BF938091BB019091BC01A091BD01B0910C
:1007C000BE013091BA0123E0230F2D3720F40196AA
:1007D000A11DB11D05C026E8230F0296A11DB11D64
:1007E0002093BA018093BB019093BC01A093BD01FB
:1007F000B093BE018091BF019091C001A091C10151
:10080000B091C2010196A11DB11D8093BF019093CB
:10081000C001A093C101B093C201BF91AF919F915C
:100820008F913F912F910F900FBE0F901F901895B1
:100830000F931F93CF93DF938C01C62FD42F607F2C
:10084000642B0E94860380E1C89FB00111246D2BA8
:10085000C801DF91CF911F910F910C94860341E065
:100860000E94180481E090E008951F920F920FB645
:100870000F9211242F933F934F935F936F937F9326
:100880008F939F93AF93BF93EF93FF938091B900A2
:10089000887F803609F49CC068F5883209F45BC013
:1008A00090F4803109F454C038F4882309F4F6C078
:1008B000883009F44DC0F6C0883109F44CC080324C
:1008C00009F45DC0EFC0803409F468C048F4803397
:1008D00009F455C0883309F0E5C080931E02D8C0E2
:1008E000803509F44FC0883509F45DC0883409F0BB
:1008F000D9C0D6C0883909F4C7C0A8F4883709F42C
:1009000067C038F4883609F463C0803709F460C0E2
:10091000C9C0883809F4B8C0803909F45FC080388C
:1009200009F0C0C05BC0803B09F486C038F4803A4F
:1009300009F466C0883A09F47FC0B4C0803C09F469
:10094000A7C0883C09F4A4C0883B09F48AC0AAC0A7
:100950008091FB0110C090911D0280911C0298179C
:1009600070F5E0911D0281E08E0F80931D02F0E092
:10097000E450FE4F80818093BB0085EC86C080935D
:100980001E028EC0E0911D0281E08E0F80931D0239
:100990008091BB00F0E0E450FE4F808390911D02F7
:1009A00080911C026EC0E0911D0281E08E0F809349
:1009B0001D028091BB00F0E0E450FE4F80838091E7
:1009C0001F0281116DC081E08093FA0184EA61C049
:1009D00083E0809320021092B901CFCF8091B901BA
:1009E000803208F051C0E091B90181E08E0F809310
:1009F000B9018091BB00F0E0E756FE4F8083BDCF88
:100A000085EC8093BC00109220028091B901803265
:100A100030F4E091B901F0E0E756FE4F10826091AA
:100A2000B90170E0E091F401F091F50189E991E0FC
:100A300009951092B90136C084E08093200210928B
:100A4000980110929701E091F601F091F701099554
:100A500080919701811105C081E0809397011092E8
:100A60007701E091980181E08E0F80939801F0E08A
:100A7000E958FE4F80818093BB009091980180914E
:100A80009701981708F479CF85E88093BC000AC0D5
:100A900085EC8093BC001092200204C010921E02CC
:100AA0000E94E401FF91EF91BF91AF919F918F91CF
:100AB0007F916F915F914F913F912F910F900FBE5A
:100AC0000F901F901895282F30914402313208F072
:100AD0004AC0809120028111FCCF9091430242E0F4
:100AE0004093200220931F022FEF20931E021092AA
:100AF0001D0230931C02E3E2F2E0ACEFB1E020E033
:100B0000321721F041914D932F5FFACF1092FB01E4
:100B10002091FB01990F922B9093FB019091FA0188
:100B2000913061F41092FA019091FB019093BB0017
:100B30009091BC0093FDF8CF95EC01C095EE909399
:100B4000BC00909120029230E1F390911E029F3FF1
:100B500079F080911E02803241F080911E02803334
:100B600031F084E005C081E003C082E001C083E091
:100B700010922202109244021092210208951092C3
:100B8000F9011092F8011092220210924402109280
:100B9000200281E080931F021092FA0161E082E05E
:100BA0000E949F0361E083E00E949F03E9EBF0E075
:100BB00080818E7F808380818D7F808388E4809395
:100BC000B80085E48093BC0086E192E09093F70141
:100BD0008093F60187E192E09093F5018093F40110
:100BE000089580910001853009F5E1E5F1E0E49197
:100BF0008FEF80930001E13071F050F0E33089F025
:100C0000E430A1F4809172008F7B809372000EC05B
:100C100010926E000BC080916F008D7F80936F00EB
:100C200005C0809171008D7F8093710060E085E048
:100C30000C949F03CF93DF939091A10221E0209326
:100C40002102909343021092220210924402682FD4
:100C500085E992E00E94710280E00E946305809124
:100C6000A102909120029111FCCF91E0909320027B
:100C700090931F022FEF20931E0210921D0222E07C
:100C800020931C029093FB019091FB01880F892B0C
:100C90008093FB018091FA01813061F41092FA0196
:100CA0008091FB018093BB008091BC0083FDF8CF55
:100CB00085EC01C085EE8093BC00809120028130DC
:100CC000E1F380911D02833018F490911D0201C060
:100CD00093E0ECEFF1E0A4EDB1E080E0891721F0C2
:100CE00021912D938F5FFACF1092F9018093F80133
:100CF00085E992E00E942802EC0185E992E00E94D9
:100D0000280220E030E0382FC22BD32B85E992E077
:100D10000E942802CE01DF91CF910895009769F0DB
:100D2000FC0101900020E9F73197AF01481B590BF6
:100D3000BC0182EA92E00C94DF0880E090E0089524
:100D40002F923F924F925F926F927F928F929F92DB
:100D5000AF92BF92CF92DF92EF92FF920F931F93C9
:100D6000CF93DF93CDB7DEB7A5970FB6F894DEBF6C
:100D70000FBECDBF4B015C01F42E9B01AC010E9464
:100D8000C711882319F086E691E027C024013501B8
:100D9000E89477F82FEF3FEF4FE75FE7C301B20129
:100DA0000E94C71181110DC02FEF3FEF4FE75FE7A2
:100DB000C301B2010E94F60F18161CF48AE691E0F6
:100DC0000CC02FEF3FEF4FE75FE4C501B4010E9475
:100DD000551118162CF48EE691E00E948E06BEC0C6
:100DE0002FEF3FEF4FE75FECC501B4010E94F60F14
:100DF00087FDF1CF20E030E0A901C501B4010E94D8
:100E0000F60F87FF0FC041E06DE282EA92E00E9498
:100E10001804B7FAB094B7F8B09481E090E09BA3BF
:100E20008AA302C01BA21AA210E060E070E080E07A
:100E30009FE3F11641F020E030E040E251E40E94EF
:100E4000FB0F1F5FF6CFA50194010E948A0F4B0193
:100E50005C010E947410762EC72ED82EE92E19A29E
:100E6000262F372F482F592F8E010F5D1F4F0CA3B0
:100E7000612E9AE0292E312C412C512CCA01B90146
:100E8000A20191010E94CC11605DF80162938F0173
:100E9000211531054105510589F7CF010E948E06C4
:100EA0000AA11BA1080F191FFF2009F456C0672DC6
:100EB0007C2D8D2D9E2D0E94A3109B01AC01C501A0
:100EC000B4010E94890F4B015C0141E06EE282EAAD
:100ED00092E00E9418040F5F1F4F8AE0282E312CE9
:100EE000412C512C20E030E040E251E4C501B40136
:100EF0000E945A114B015C010E9474109B0140E05A
:100F000050E019A2CCA0D62C762E3AA34DA3E52E04
:100F1000CA01B901A20191010E94CC11605DF601E4
:100F200062936F01211531054105510589F7CF0104
:100F30000E948E06080F191F672D7AA18DA19E2D84
:100F40000E94A3109B01AC01C501B4010E94890F4E
:100F50004B015C01FA94F110C5CFC801A5960FB6FC
:100F6000F894DEBF0FBECDBFDF91CF911F910F91DF
:100F7000FF90EF90DF90CF90BF90AF909F908F90B9
:100F80007F906F905F904F903F902F900895CF93F8
:100F9000DF93CDB7DEB728970FB6F894DEBF0FBE4C
:100FA000CDBF98E0EDE0F1E0DE01119601900D92E9
:100FB0009A95E1F79091AB02981710F48FEF890F93
:100FC000FE013196E80FF11DE80FF11D60816068A8
:100FD00040E082EA92E028960FB6F894DEBF0FBE9A
:100FE000CDBFDF91CF910C9418042091D301211132
:100FF00003C08FEF9FEF08955FB7F89422E020932E
:10100000E9002091F20030E01216130614F421E0FA
:1010100030E0422FFC0184E6415038F0289A80935A
:10102000D2019091F1009193F7CF2115310521F074
:101030008091F200882319F05FBFC90108958BE603
:101040008093E800F9CF2FB7F89483E08093E9000C
:101050009091E800892F807295FF04C09091F20072
:1010600080E4891B2FBF08958091B20281110DC0C9
:1010700082E08093AE0284E08093AF021092B102CE
:101080001092B00281E08093B2028EEA92E008955D
:101090004091C6025091C7022091C4023091C5020E
:1010A00042175307B4F49091E8009570E1F39091E2
:1010B000E80092FD19C08093F1008091C6029091E2
:1010C000C70201968F739927892B19F48EEF8093AD
:1010D000E8008091C6029091C70201969093C702E2
:1010E0008093C60281E0089580E00895DF92EF9238
:1010F000FF920F931F93CF93DF93D82EF92EE42EF8
:10110000062F10E0C8010196880F0E94480883E06E
:101110000E944808CD2DDF2D0C0F1D1FC017D107D1
:1011200089F0E7FE03C0FE01849101C088810E941E
:101130004808F82E80E00E9448088F2121968111EE
:10114000EDCF01C081E0DF91CF911F910F91FF9012
:10115000EF90DF900895DF92EF92FF920F931F932D
:10116000CF93DF93D82E8A017B01E40EF51EEB01AD
:10117000CE15DF0571F0D7FE03C0FE01849101C0DA
:1011800088810E94480821968111F2CF8FEF9FEF4E
:1011900001C0C801DF91CF911F910F91FF90EF9097
:1011A000DF900895615030F02091F100FC01208320
:1011B0000196F8CF289A84E68093D2010895CF92C1
:1011C000DF92EF92FF920F931F93CF93DF936C0107
:1011D0007A018B01C0E0D0E0CE15DF0581F0D801A7
:1011E0006D918D01D601ED91FC910190F081E02D82
:1011F000C6010995892B11F02196EECF7E01C7011A
:10120000DF91CF911F910F91FF90EF90DF90CF90E2
:1012100008950F931F93CF93DF931F92CDB7DEB73F
:1012200082E0898342E450E062E571E080E80E9458
:10123000AB080E943408DC0112960D911C911397A3
:101240000115110589F0D801ED91FC910280F3811F
:10125000E02DBE016F5F7F4FC801099597FD04C067
:10126000F80100851185ECCF89810F90DF91CF9136
:101270001F910F9108951F920F920FB60F92112494
:101280008F939F938091E1009091E100937F9093E1
:10129000E10083FF0FC01092E90091E09093EB0012
:1012A0001092EC0092E39093ED001092D30198E03D
:1012B0009093F00082FF20C093E09093E90090911A
:1012C000F200992319F09AE39093E8009091C302F9
:1012D000992339F09091C30291509093C3029923BE
:1012E00089F19091D201992339F09091D2019150D6
:1012F0009093D201992341F184FF10C08091E200C4
:101300008E7E81608093E2008091E1008F7E8093E9
:10131000E1008091C2028E7E806111C080FF16C004
:101320008091E2008E7E80618093E2008091E100F6
:101330008E7E8093E1008091C2028E7E81608093D8
:10134000C20204C05D98CDCF2898D6CF9F918F91CF
:101350000F900FBE0F901F9018951F920F920FB60F
:101360000F921124CF92DF92EF92FF920F931F936F
:101370002F933F934F935F936F937F938F939F939D
:10138000AF93BF93EF93FF93CF93DF93CDB7DEB7C8
:101390006C97DEBFCDBF1092E9008091E80083FF1B
:1013A000FBC168E0CE0145960E94D20882EF80938F
:1013B000E8008D8987FF05C09091E80090FFFCCF81
:1013C00003C09EEF9093E800982F907609F0C6C076
:1013D0009E894F89588D2F89F88C91110CC08038C7
:1013E00029F48091C1028093F10002C01092F100B3
:1013F0001092F10045C1913051F4811141C1413049
:10140000510509F03DC18091C1028D7F0BC0933021
:1014100061F4811135C14130510509F031C180912C
:10142000C10282608093C1022BC1953049F4809142
:10143000E80080FFFCCF822F80688093E30020C10A
:10144000963009F05EC00B8D1C8D22E01092E900F1
:101450001092C7021092C602F21232C01092C50258
:101460001092C4020E94090999E0BE016F5F7F4F8C
:10147000DB01E92F1D92EA95E9F79983FA8291E061
:101480009E8390EA98879AEF99872091C6023091BF
:10149000C702275F3F4F3C832B838D831092E90067
:1014A0001092C7021092C6021093C5020093C402A4
:1014B00049E050E080E00E94AB080E940909E0C0CA
:1014C0001093C5020093C4020E943408DC011296F6
:1014D0000D911C9113970115110509F4BBC0D8019A
:1014E000ED91FC910480F581E02DBE016B5E7F4F94
:1014F000C8010995009709F0C7C0F801008511855A
:10150000EACF973009F445C1983021F481E0809307
:10151000F100B6C0993009F0B3C0837009F039C149
:10152000E6E4F1E081E031E096E32081211109C099
:101530008EE78093EA001092EA008F898093D301AE
:101540009FC08093E9003093EB0021912093EC0041
:101550009093ED008F5F873041F7EACF8B8D9C8DA4
:101560001092E9001092C7021092C6029093C50231
:101570008093C402898D811153C08E899D89913ACF
:1015800049F4813209F005C147E050E065E071E0BF
:1015900080E0BBC0913209F0FCC0833269F48F89CE
:1015A000988DA0E0B0E08093010190930201A09398
:1015B0000301B093040164C0803269F48091E800B3
:1015C00082FFFCCF67E085E091E00E94D2088BEFBC
:1015D0008093E80055C0823209F052C08F89809311
:1015E0000C01EEEFFFE7859194918B3F9C4D19F034
:1015F000E0E0F8E002C0EEEFFAE0809105019091A2
:101600000601A0910701B0910801803B9440A1051B
:10161000B10509F09EC080910C0180FF79C099C08E
:101620000E943408FC01028113810115110509F49F
:10163000B0C0D801ED91FC910190F081E02DBE0188
:101640006B5E7F4FC801099581111AC0F8010085B2
:101650001185EBCFF1E0FF1609F44EC0F3E0FF1265
:1016600098C08F89882309F44AC0823089F440E801
:101670006DE086EB91E00E947608882309F489C02A
:101680008EEF8093E80088C018161906CCF381C04D
:10169000813029F440E86BE08AEA91E0ECCF8330B6
:1016A00009F077C00E943408DC011296ED90FC909E
:1016B00013978E010F5F1F4F6801E114F10479F059
:1016C000D701ED91FC910680F781E02DB801C701AB
:1016D0000995080F111DF701E084F184EECFD801C0
:1016E0001C92F60101900020E9F73197BF016C19B7
:1016F0007D0940E0C601BFCF68E971E002C064E93E
:1017000071E0FB01449150E080E80E94AB08B8CF43
:10171000EE3F2AE0F20751F0808191818737A7E7F9
:101720009A0721F09093FF0A8093FE0A87E797E7D4
:1017300091838083809160008093C8029BE088E160
:101740000FB6F894A895809360000FBE9093600048
:1017500097CF808191818737974709F091CFA895DE
:10176000809160008861809360008091C8028093BE
:101770006000EE3FBAE0FB0739F08091FE0A9091DD
:10178000FF0A918380837CCF1092FF0A1092FE0A99
:1017900077CF81E28093EB006C960FB6F894DEBFB2
:1017A0000FBECDBFDF91CF91FF91EF91BF91AF9170
:1017B0009F918F917F916F915F914F913F912F9169
:1017C0001F910F91FF90EF90DF90CF900F900FBE81
:1017D0000F901F9018951F920F920FB60F92112421
:1017E0008F939F93AF93BF93EF93FF938091BD022D
:1017F0009091BE02A091BF02B091C002892B8A2BAA
:101800008B2B51F19091BC02E091BA02F091BB0296
:101810008081892780838091BD029091BE02A09132
:10182000BF02B091C002181619061A061B061CF555
:101830008091BD029091BE02A091BF02B091C00202
:101840000197A109B1098093BD029093BE02A093B4
:10185000BF02B093C0020FC0809171008D7F809352
:1018600071008091BC02E091BA02F091BB029081BC
:10187000809589238083FF91EF91BF91AF919F91D4
:101880008F910F900FBE0F901F901895789484B58C
:10189000826084BD84B5816084BD85B5826085BD6C
:1018A00085B5816085BD80916E00816080936E00FA
:1018B00010928100809181008260809381008091EC
:1018C000810081608093810080918000816080939D
:1018D00080008091910082608093910080919100BE
:1018E000816080939100809190008160809390004E
:1018F0008091C10084608093C1008091C1008260AA
:101900008093C1008091C10081608093C10080916B
:10191000C30081608093C3008091C0008260809387
:10192000C0008091C20081608093C20080917A00E3
:10193000846080937A0080917A00826080937A003C
:1019400080917A00816080937A0080917A0080682B
:1019500080937A001092D3011092C1021092C202B9
:101960008091D70081608093D70080EA8093D8006F
:1019700089B5806189BD89B5826089BD09B400FEE1
:10198000FDCF61E070E080E090E00E94AA018091CC
:10199000D8008F7C80618093D8008091E000807FA8
:1019A0008093E0008091E1008E7E8093E1008DE0E5
:1019B0008093E200559A209A5D9828988FEF9FEFC8
:1019C00090935202809351020E94BF050E94BF056E
:1019D0001092A7028091AB02823018F098E09093A9
:1019E000A7029091AC02992339F0813029F48091BB
:1019F000A70284608093A70262E370E080E090E039
:101A00000E94AA016091AD0282EA92E00E947203F4
:101A100068EE73E080E090E00E94AA0160E382EA51
:101A200092E00E948603CBE4D6E4CE010197F1F761
:101A300060E382EA92E00E9486032197F1F760E377
:101A400082EA92E00E94860383E592E00197F1F733
:101A500060E282EA92E00E9486036091A7026062DF
:101A600040E082EA92E00E94180484E08093A80299
:101A700040E06CE082EA92E00E94180440E061E0FD
:101A800082EA92E00E941804CBE3DFE1CE010197E5
:101A9000F1F782E08093A90240E066E082EA92E0FA
:101AA0000E94180440E062E082EA92E00E9418047A
:101AB0002197F1F7F8E68F2EF6E19F2EA12CB12C9D
:101AC000EAE02E2EE1E03E2EC7E3D1E0ECEDF0E0BF
:101AD0008491E9E0F1E01491E6E3F1E00491002360
:101AE000A1F081110E944801E02FF0E0EE0FFF1FEE
:101AF000E653FF4FA591B4918C91182391E080E0BB
:101B000009F490E0092F182F02C000E010E086E0F1
:101B10000E941A06BC0180E090E00E94A3102AE017
:101B200037ED43EA5CE30E945A1123E333E948E8C6
:101B300053E40E94890F0E946D106B0187E00E94A0
:101B40001A067C010E94F105012B21F0F9E2CF1663
:101B5000D10444F0809100018530E9F08F3F09F015
:101B600033C11DC0B70180E090E00E94A3102AE0BD
:101B700037ED43EA5CE30E945A1123E333E948E876
:101B800053E40E94890F0E946D106932710514F7A9
:101B90000E94F10519C1E1E5F1E0449189C085E0B9
:101BA00080930001E1E5F1E044914F3F09F40CC15D
:101BB000413009F43DC020F1433009F457C04430AE
:101BC00009F076C01092C0001092C1008091C1004F
:101BD00088608093C1008091C10081608093C100C2
:101BE000FE018491E82FF0E0EE0FFF1FEC5DFE4F49
:101BF00085919491F10184918093C30144E05AC08E
:101C000014BC15BC84B5826084BD85B5816085BD7A
:101C1000FE018491E82FF0E0EE0FFF1FEC5DFE4F18
:101C200085919491F10184918093C50140E042C077
:101C300010928000109281008091810088608093D2
:101C4000810080918100816080938100FE018491F8
:101C5000E82FF0E0EE0FFF1FEC5DFE4F85919491B1
:101C6000F10184918093C40141E024C0109290005E
:101C700010929100809191008860809391008091F2
:101C80009100816080939100FE018491E82FF0E043
:101C9000EE0FFF1FEC5DFE4F859194919093BB0278
:101CA0008093BA02F10184918093BC0243E002C0A8
:101CB00047FD8AC0F1015491FE018491882399F077
:101CC00090E0880F991FFC01E950FF4FA591B49156
:101CD000FC01EC5DFE4F259134919FB7F8948C91F7
:101CE000582B5C939FBF442309F45BC0423009F436
:101CF0006BC04130D1F480918100887F81608093F6
:101D000081008FEA90E2909389008093880080920E
:101D1000CA019092CB01A092CC01B092CD018091EA
:101D20006F00826080936F004FC0433039F4809120
:101D30009100887F8160809391000EC0443039F417
:101D40008091C100887F81608093C10019C04330B9
:101D500019F04430A9F038C0EFEAF0E2F0939900AE
:101D6000E09398008092BD029092BE02A092BF02C2
:101D7000B092C0028091710082608093710024C093
:101D80008FEA8093CF008092C6019092C701A09203
:101D9000C801B092C9018091720080648093720082
:101DA00013C085B5887F836085BD81E887BD80923B
:101DB000CE019092CF01A092D001B092D10180913A
:101DC0006E00826080936E0086E00E941A06BC015D
:101DD00080E090E00E94A3102B013C0187E00E946C
:101DE0001A06BC0180E090E00E94A3106B017C0108
:101DF00040E061E082EA92E00E9418048BE39FE1F8
:101E00000197F1F788E08093AD0260E082EA92E00A
:101E10000E94720380E00E94C7078CE491E00E9458
:101E20008E062AE037ED43EA5CE3C301B2010E946B
:101E30005A1123E333E948E853E40E94890F42E052
:101E40000E94A00687E591E00E948E0689E591E058
:101E50000E948E0681E00E94C7078CE591E00E94F7
:101E60008E062AE037ED43EA5CE3C701B6010E9423
:101E70005A1123E333E948E853E40E94890F42E012
:101E80000E94A00687E591E00E948E0668EE73E04E
:101E900080E090E00E94AA0180E090E0892B09F4A4
:101EA00015CE0E9400000CCEE5E4F2E0138212820F
:101EB00088EE93E0A0E0B0E084839583A683B783A7
:101EC00029E131E0318320832FEF3FEF35872487ED
:101ED000E5E9F2E01382128284839583A683B783B7
:101EE0008BE291E091838083E2EAF2E01382128236
:101EF0008DE391E0918380838FE3848380E1808709
:101F000082E08187128688E083878AE58093A10238
:101F100008955058BB27AA270E94A10F0C941B11AB
:101F20000E940D1138F00E94141120F039F49F3FE7
:101F300019F426F40C940A110EF4E095E7FB0C94C6
:101F40000411E92F0E942C1158F3BA176207730786
:101F50008407950720F079F4A6F50C944E110EF441
:101F6000E0950B2EBA2FA02D0B01B90190010C01A9
:101F7000CA01A0011124FF27591B99F0593F50F4C1
:101F8000503E68F11A16F040A22F232F342F442719
:101F9000585FF3CF469537952795A795F040539511
:101FA000C9F77EF41F16BA0B620B730B840BBAF0E1
:101FB0009150A1F0FF0FBB1F661F771F881FC2F74C
:101FC0000EC0BA0F621F731F841F48F48795779560
:101FD0006795B795F7959E3F08F0B0CF9395880F1A
:101FE00008F09927EE0F9795879508950E94E010C5
:101FF00008F481E008950E940F100C941B110E94B8
:10200000141158F00E940D1140F029F45F3F29F09F
:102010000C94041151110C944F110C940A110E944C
:102020002C1168F39923B1F3552391F3951B550BAC
:10203000BB27AA2762177307840738F09F5F5F4F9B
:10204000220F331F441FAA1FA9F335D00E2E3AF0DA
:10205000E0E832D091505040E695001CCAF72BD0F2
:10206000FE2F29D0660F771F881FBB1F2617370743
:102070004807AB07B0E809F0BB0B802DBF01FF2775
:1020800093585F4F3AF09E3F510578F00C9404113D
:102090000C944F115F3FE4F3983ED4F38695779507
:1020A0006795B795F7959F5FC9F7880F911D96952E
:1020B000879597F90895E1E0660F771F881FBB1F8A
:1020C000621773078407BA0720F0621B730B840B37
:1020D000BA0BEE1F88F7E09508950E94741068947B
:1020E000B1110C944F1108950E94341188F09F573C
:1020F00098F0B92F9927B751B0F0E1F0660F771F2C
:10210000881F991F1AF0BA95C9F714C0B13091F021
:102110000E944E11B1E008950C944E11672F782F54
:102120008827B85F39F0B93FCCF3869577956795E6
:10213000B395D9F73EF490958095709561957F4F52
:102140008F4F9F4F0895E89409C097FB3EF49095F8
:102150008095709561957F4F8F4F9F4F9923A9F080
:10216000F92F96E9BB279395F6958795779567950F
:10217000B795F111F8CFFAF4BB0F11F460FF1BC053
:102180006F5F7F4F8F4F9F4F16C0882311F096E9E6
:1021900011C0772321F09EE8872F762F05C0662394
:1021A00071F096E8862F70E060E02AF09A95660F4D
:1021B000771F881FDAF7880F9695879597F9089506
:1021C000990F0008550FAA0BE0E8FEEF1616170648
:1021D000E807F907C0F012161306E407F50798F0B0
:1021E000621B730B840B950B39F40A2661F0232BC9
:1021F000242B252B21F408950A2609F4A140A69545
:102200008FEF811D811D089597F99F6780E870E029
:1022100060E008959FEF80EC089500240A9416165C
:10222000170618060906089500240A9412161306C4
:10223000140605060895092E0394000C11F4882352
:1022400052F0BB0F40F4BF2B11F460FF04C06F5F6E
:102250007F4F8F4F9F4F089557FD9058440F551F44
:1022600059F05F3F71F04795880F97FB991F61F018
:102270009F3F79F087950895121613061406551F8F
:10228000F2CF4695F1DF08C0161617061806991FFB
:10229000F1CF86957105610508940895E894BB27F0
:1022A00066277727CB0197F908950E94E01008F47C
:1022B0008FEF08950E946D110C941B110E940D1157
:1022C00038F00E94141120F0952311F00C940411A1
:1022D0000C940A1111240C944F110E942C1170F3CC
:1022E000959FC1F3950F50E0551F629FF001729FBB
:1022F000BB27F00DB11D639FAA27F00DB11DAA1FCA
:10230000649F6627B00DA11D661F829F2227B00D16
:10231000A11D621F739FB00DA11D621F839FA00DA1
:10232000611D221F749F3327A00D611D231F849FF1
:10233000600D211D822F762F6A2F11249F57504048
:102340009AF0F1F088234AF0EE0FFF1FBB1F661FC3
:10235000771F881F91505040A9F79E3F510580F08C
:102360000C9404110C944F115F3FE4F3983ED4F3A6
:10237000869577956795B795F795E7959F5FC1F730
:10238000FE2B880F911D9695879597F908950E94C9
:10239000E010880B990B0895A1E21A2EAA1BBB1B13
:1023A000FD010DC0AA1FBB1FEE1FFF1FA217B30721
:1023B000E407F50720F0A21BB30BE40BF50B661F37
:1023C000771F881F991F1A9469F7609570958095FB
:1023D00090959B01AC01BD01CF010895EE0FFF1F49
:1023E0000590F491E02D099481E090E0F8940C942C
:0623F000F911F894FFCF83
:1023F600FFFFFFFFFF00E1000000000000000040BB
:102406000014005400000000000D01A4022A03235A
:10241600012E0152032E030000000071024402A1A6
:102426000218023C0228021902000000002F04DFF5
:1024360008A102A00200C18081000000416D62690E
:10244600656E74203D200043000D0A004F626A65E8
:102456006374203D20006E616E00696E66006F76C3
:0224660066000E
:00000001FF
